{
  "contractName": "Voting",
  "abi": [
    {
      "constant": true,
      "inputs": [
        {
          "name": "",
          "type": "uint256"
        }
      ],
      "name": "stuffList",
      "outputs": [
        {
          "name": "name",
          "type": "bytes32"
        },
        {
          "name": "total",
          "type": "int8"
        },
        {
          "name": "up",
          "type": "int8"
        },
        {
          "name": "down",
          "type": "int8"
        },
        {
          "name": "alll",
          "type": "int8"
        }
      ],
      "payable": false,
      "stateMutability": "view",
      "type": "function"
    },
    {
      "constant": true,
      "inputs": [
        {
          "name": "",
          "type": "bytes32"
        }
      ],
      "name": "stfs",
      "outputs": [
        {
          "name": "name",
          "type": "bytes32"
        },
        {
          "name": "total",
          "type": "int8"
        },
        {
          "name": "up",
          "type": "int8"
        },
        {
          "name": "down",
          "type": "int8"
        },
        {
          "name": "alll",
          "type": "int8"
        }
      ],
      "payable": false,
      "stateMutability": "view",
      "type": "function"
    },
    {
      "inputs": [
        {
          "name": "initoption",
          "type": "bytes32[]"
        }
      ],
      "payable": false,
      "stateMutability": "nonpayable",
      "type": "constructor"
    },
    {
      "constant": true,
      "inputs": [
        {
          "name": "a",
          "type": "uint256"
        }
      ],
      "name": "getInfo",
      "outputs": [
        {
          "name": "",
          "type": "string"
        }
      ],
      "payable": false,
      "stateMutability": "view",
      "type": "function"
    },
    {
      "constant": true,
      "inputs": [],
      "name": "getLength",
      "outputs": [
        {
          "name": "",
          "type": "int256"
        }
      ],
      "payable": false,
      "stateMutability": "view",
      "type": "function"
    },
    {
      "constant": false,
      "inputs": [
        {
          "name": "stuffName",
          "type": "bytes32"
        }
      ],
      "name": "createVoting",
      "outputs": [],
      "payable": false,
      "stateMutability": "nonpayable",
      "type": "function"
    },
    {
      "constant": true,
      "inputs": [
        {
          "name": "stuff",
          "type": "bytes32"
        }
      ],
      "name": "totalVotesFor",
      "outputs": [
        {
          "name": "",
          "type": "int8"
        }
      ],
      "payable": false,
      "stateMutability": "view",
      "type": "function"
    },
    {
      "constant": true,
      "inputs": [
        {
          "name": "stuff",
          "type": "bytes32"
        }
      ],
      "name": "totalAlllFor",
      "outputs": [
        {
          "name": "",
          "type": "int8"
        }
      ],
      "payable": false,
      "stateMutability": "view",
      "type": "function"
    },
    {
      "constant": true,
      "inputs": [
        {
          "name": "stuff",
          "type": "bytes32"
        }
      ],
      "name": "totalUpFor",
      "outputs": [
        {
          "name": "",
          "type": "int8"
        }
      ],
      "payable": false,
      "stateMutability": "view",
      "type": "function"
    },
    {
      "constant": true,
      "inputs": [
        {
          "name": "stuff",
          "type": "bytes32"
        }
      ],
      "name": "totalDownFor",
      "outputs": [
        {
          "name": "",
          "type": "int8"
        }
      ],
      "payable": false,
      "stateMutability": "view",
      "type": "function"
    },
    {
      "constant": false,
      "inputs": [
        {
          "name": "stuff",
          "type": "bytes32"
        }
      ],
      "name": "ThumbupForStuff",
      "outputs": [],
      "payable": false,
      "stateMutability": "nonpayable",
      "type": "function"
    },
    {
      "constant": false,
      "inputs": [
        {
          "name": "stuff",
          "type": "bytes32"
        }
      ],
      "name": "ThumbdownForStuff",
      "outputs": [],
      "payable": false,
      "stateMutability": "nonpayable",
      "type": "function"
    },
    {
      "constant": true,
      "inputs": [
        {
          "name": "stuff",
          "type": "bytes32"
        }
      ],
      "name": "validStuff",
      "outputs": [
        {
          "name": "",
          "type": "bool"
        }
      ],
      "payable": false,
      "stateMutability": "view",
      "type": "function"
    },
    {
      "constant": true,
      "inputs": [
        {
          "name": "x",
          "type": "bytes32"
        }
      ],
      "name": "bytes32ToString",
      "outputs": [
        {
          "name": "",
          "type": "string"
        }
      ],
      "payable": false,
      "stateMutability": "view",
      "type": "function"
    },
    {
      "constant": true,
      "inputs": [
        {
          "name": "data",
          "type": "bytes32[]"
        }
      ],
      "name": "bytes32ArrayToString",
      "outputs": [
        {
          "name": "",
          "type": "string"
        }
      ],
      "payable": false,
      "stateMutability": "view",
      "type": "function"
    }
  ],
  "bytecode": "0x60606040526000805534156200001457600080fd5b60405162001509380380620015098339810160405280805182019190505060008090505b8151811015620002a4576001600080828254019250508190555060028054806001018281620000689190620002ac565b9160005260206000209060020201600060a06040519081016040528086868151811015156200009357fe5b906020019060200201516000191681526020016000800b81526020016000800b81526020016000800b81526020016000800b81525090919091506000820151816000019060001916905560208201518160010160006101000a81548160ff021916908360000b60ff16021790555060408201518160010160016101000a81548160ff021916908360000b60ff16021790555060608201518160010160026101000a81548160ff021916908360000b60ff16021790555060808201518160010160036101000a81548160ff021916908360000b60ff16021790555050505060a06040519081016040528083838151811015156200018b57fe5b906020019060200201516000191681526020016000800b81526020016000800b81526020016000800b81526020016000800b815250600160008484815181101515620001d357fe5b90602001906020020151600019166000191681526020019081526020016000206000820151816000019060001916905560208201518160010160006101000a81548160ff021916908360000b60ff16021790555060408201518160010160016101000a81548160ff021916908360000b60ff16021790555060608201518160010160026101000a81548160ff021916908360000b60ff16021790555060808201518160010160036101000a81548160ff021916908360000b60ff160217905550905050808060010191505062000038565b50506200035b565b815481835581811511620002dc57600202816002028360005260206000209182019101620002db9190620002e1565b5b505050565b6200035891905b8082111562000354576000808201600090556001820160006101000a81549060ff02191690556001820160016101000a81549060ff02191690556001820160026101000a81549060ff02191690556001820160036101000a81549060ff021916905550600201620002e8565b5090565b90565b61119e806200036b6000396000f3006060604052600436106100d0576000357c0100000000000000000000000000000000000000000000000000000000900463ffffffff168063099aca3f146100d55780631a3cd59a146101165780631c66e07b146101b25780631d95e4f0146101d95780632cba6f9d146102005780632f265cf71461023f57806339b8d471146102805780633c505492146102c1578063436bd947146103025780634db9df321461037557806384f19f37146103ec5780639201de55146104135780639cbc87a3146104b3578063be1c766b14610586575b600080fd5b34156100e057600080fd5b6100fa6004808035600019169060200190919050506105af565b604051808260000b60000b815260200191505060405180910390f35b341561012157600080fd5b61013760048080359060200190919050506105fc565b6040518080602001828103825283818151815260200191508051906020019080838360005b8381101561017757808201518184015260208101905061015c565b50505050905090810190601f1680156101a45780820380516001836020036101000a031916815260200191505b509250505060405180910390f35b34156101bd57600080fd5b6101d760048080356000191690602001909190505061063a565b005b34156101e457600080fd5b6101fe600480803560001916906020019091905050610739565b005b341561020b57600080fd5b610225600480803560001916906020019091905050610838565b604051808215151515815260200191505060405180910390f35b341561024a57600080fd5b61026460048080356000191690602001909190505061089e565b604051808260000b60000b815260200191505060405180910390f35b341561028b57600080fd5b6102a56004808035600019169060200190919050506108eb565b604051808260000b60000b815260200191505060405180910390f35b34156102cc57600080fd5b6102e6600480803560001916906020019091905050610938565b604051808260000b60000b815260200191505060405180910390f35b341561030d57600080fd5b6103236004808035906020019091905050610985565b6040518086600019166000191681526020018560000b60000b81526020018460000b60000b81526020018360000b60000b81526020018260000b60000b81526020019550505050505060405180910390f35b341561038057600080fd5b61039a6004808035600019169060200190919050506109fe565b6040518086600019166000191681526020018560000b60000b81526020018460000b60000b81526020018360000b60000b81526020018260000b60000b81526020019550505050505060405180910390f35b34156103f757600080fd5b610411600480803560001916906020019091905050610a68565b005b341561041e57600080fd5b610438600480803560001916906020019091905050610c8d565b6040518080602001828103825283818151815260200191508051906020019080838360005b8381101561047857808201518184015260208101905061045d565b50505050905090810190601f1680156104a55780820380516001836020036101000a031916815260200191505b509250505060405180910390f35b34156104be57600080fd5b61050b600480803590602001908201803590602001908080602002602001604051908101604052809392919081815260200183836020028082843782019150505050505091905050610e7a565b6040518080602001828103825283818151815260200191508051906020019080838360005b8381101561054b578082015181840152602081019050610530565b50505050905090810190601f1680156105785780820380516001836020036101000a031916815260200191505b509250505060405180910390f35b341561059157600080fd5b610599611098565b6040518082815260200191505060405180910390f35b6000600115156105be83610838565b15151415156105c957fe5b60016000836000191660001916815260200190815260200160002060010160019054906101000a900460000b9050919050565b6106046110a1565b600060028381548110151561061557fe5b906000526020600020906002020160000154905061063281610c8d565b915050919050565b6001151561064782610838565b151514151561065257fe5b6001806000836000191660001916815260200190815260200160002060010160018282829054906101000a900460000b0192506101000a81548160ff021916908360000b60ff1602179055506001806000836000191660001916815260200190815260200160002060010160008282829054906101000a900460000b0192506101000a81548160ff021916908360000b60ff1602179055506001806000836000191660001916815260200190815260200160002060010160038282829054906101000a900460000b0192506101000a81548160ff021916908360000b60ff16021790555050565b6001151561074682610838565b151514151561075157fe5b6001806000836000191660001916815260200190815260200160002060010160028282829054906101000a900460000b0192506101000a81548160ff021916908360000b60ff1602179055506001806000836000191660001916815260200190815260200160002060010160008282829054906101000a900460000b0392506101000a81548160ff021916908360000b60ff1602179055506001806000836000191660001916815260200190815260200160002060010160038282829054906101000a900460000b0192506101000a81548160ff021916908360000b60ff16021790555050565b600080600090505b60028054905081101561089357826000191660028281548110151561086157fe5b9060005260206000209060020201600001546000191614156108865760019150610898565b8080600101915050610840565b600091505b50919050565b6000600115156108ad83610838565b15151415156108b857fe5b60016000836000191660001916815260200190815260200160002060010160009054906101000a900460000b9050919050565b6000600115156108fa83610838565b151514151561090557fe5b60016000836000191660001916815260200190815260200160002060010160039054906101000a900460000b9050919050565b60006001151561094783610838565b151514151561095257fe5b60016000836000191660001916815260200190815260200160002060010160029054906101000a900460000b9050919050565b60028181548110151561099457fe5b90600052602060002090600202016000915090508060000154908060010160009054906101000a900460000b908060010160019054906101000a900460000b908060010160029054906101000a900460000b908060010160039054906101000a900460000b905085565b60016020528060005260406000206000915090508060000154908060010160009054906101000a900460000b908060010160019054906101000a900460000b908060010160029054906101000a900460000b908060010160039054906101000a900460000b905085565b60001515610a7582610838565b1515141515610a8057fe5b60028054806001018281610a9491906110b5565b9160005260206000209060020201600060a060405190810160405280856000191681526020016000800b81526020016000800b81526020016000800b81526020016000800b81525090919091506000820151816000019060001916905560208201518160010160006101000a81548160ff021916908360000b60ff16021790555060408201518160010160016101000a81548160ff021916908360000b60ff16021790555060608201518160010160026101000a81548160ff021916908360000b60ff16021790555060808201518160010160036101000a81548160ff021916908360000b60ff16021790555050505060a060405190810160405280826000191681526020016000800b81526020016000800b81526020016000800b81526020016000800b8152506001600083600019166000191681526020019081526020016000206000820151816000019060001916905560208201518160010160006101000a81548160ff021916908360000b60ff16021790555060408201518160010160016101000a81548160ff021916908360000b60ff16021790555060608201518160010160026101000a81548160ff021916908360000b60ff16021790555060808201518160010160036101000a81548160ff021916908360000b60ff1602179055509050506001600080828254019250508190555050565b610c956110a1565b610c9d6110e7565b6000806000610caa6110e7565b6020604051805910610cb95750595b9080825280601f01601f1916602001820160405250945060009350600092505b6020831015610d97578260080260020a876001900402600102915060007f010000000000000000000000000000000000000000000000000000000000000002827effffffffffffffffffffffffffffffffffffffffffffffffffffffffffffff1916141515610d8a57818585815181101515610d5157fe5b9060200101907effffffffffffffffffffffffffffffffffffffffffffffffffffffffffffff1916908160001a90535083806001019450505b8280600101935050610cd9565b83604051805910610da55750595b9080825280601f01601f19166020018201604052509050600092505b83831015610e6d578483815181101515610dd757fe5b9060200101517f010000000000000000000000000000000000000000000000000000000000000090047f0100000000000000000000000000000000000000000000000000000000000000028184815181101515610e3057fe5b9060200101907effffffffffffffffffffffffffffffffffffffffffffffffffffffffffffff1916908160001a9053508280600101935050610dc1565b8095505050505050919050565b610e826110a1565b610e8a6110e7565b600080600080610e986110e7565b6020885102604051805910610eaa5750595b9080825280601f01601f19166020018201604052509550600093505b8751841015610fb457600092505b6020831015610fa7578260080260020a8885815181101515610ef257fe5b906020019060200201516001900402600102915060007f010000000000000000000000000000000000000000000000000000000000000002827effffffffffffffffffffffffffffffffffffffffffffffffffffffffffffff1916141515610f9a57818686815181101515610f6357fe5b9060200101907effffffffffffffffffffffffffffffffffffffffffffffffffffffffffffff1916908160001a9053506001850194505b8280600101935050610ed4565b8380600101945050610ec6565b84604051805910610fc25750595b9080825280601f01601f19166020018201604052509050600093505b8484101561108a578584815181101515610ff457fe5b9060200101517f010000000000000000000000000000000000000000000000000000000000000090047f010000000000000000000000000000000000000000000000000000000000000002818581518110151561104d57fe5b9060200101907effffffffffffffffffffffffffffffffffffffffffffffffffffffffffffff1916908160001a9053508380600101945050610fde565b809650505050505050919050565b60008054905090565b602060405190810160405280600081525090565b8154818355818115116110e2576002028160020283600052602060002091820191016110e191906110fb565b5b505050565b602060405190810160405280600081525090565b61116f91905b8082111561116b576000808201600090556001820160006101000a81549060ff02191690556001820160016101000a81549060ff02191690556001820160026101000a81549060ff02191690556001820160036101000a81549060ff021916905550600201611101565b5090565b905600a165627a7a72305820ab54eea57cd462c3554d96b05a5e8c726f9c0d8809f0d784854fb825c12053480029",
  "source": "pragma solidity ^0.4.21;\n\ncontract Voting {\n\n  //init stuct Stuff\nstruct Stuff{\n  bytes32 name;\n  int8  total;\n  int8 up;\n  int8 down;\n  int8 alll;\n}\n  int listnumber = 0;\n  mapping(bytes32 => Stuff)public stfs;\n  //save stufflist\n  \n  Stuff[] public stuffList;\n  \n  function getInfo(uint a) public constant\n  returns(string){\n          bytes32 data = stuffList[a].name;\n          return (bytes32ToString(data));\n      \n  }\n  \n  function getLength() public constant\n  returns(int){\n          \n          return(listnumber);\n      \n  }\n  //init stufflist\n function Voting(bytes32[]initoption) public{\n    \n    for(uint i=0; i<initoption.length; i++){\n    \n    listnumber += 1;\n    \n    stuffList.push(Stuff(initoption[i],0,0,0,0));\n    \n    stfs[initoption[i]] = Stuff(initoption[i],0,0,0,0);\n    \n    }\n}\n\n  //add votingstuff\n  function createVoting(bytes32 stuffName) public{\n   \n        assert(validStuff(stuffName) == false);\n    \n        stuffList.push(Stuff(stuffName,0,0,0,0));\n        \n        stfs[stuffName]=Stuff(stuffName,0,0,0,0);\n         \n        listnumber += 1;\n\n  }\n\n  //get total votes of stuff\n  function totalVotesFor(bytes32 stuff)  public constant returns (int8) {\n      \n   assert(validStuff(stuff) == true);\n\n    return stfs[stuff].total;\n  }\n  \n function totalAlllFor(bytes32 stuff)  public constant returns (int8) {\n      \n   assert(validStuff(stuff) == true);\n\n    return stfs[stuff].alll;\n  }\n  \n  //get total thumbups for stuff\n  function totalUpFor(bytes32 stuff)  public constant returns (int8) {\n      \n   assert(validStuff(stuff) == true);\n\n    return stfs[stuff].up;\n    \n  }\n  \n  //get total thumbdowns for stuff\n  function totalDownFor(bytes32 stuff)  public constant returns (int8) {\n        \n   assert(validStuff(stuff) == true);\n\n    return stfs[stuff].down;\n    \n    \n  }\n  \n  \n  // \n  function ThumbupForStuff(bytes32 stuff) public{\n      \n   assert(validStuff(stuff) == true);\n    \n    stfs[stuff].up += 1;\n    \n    stfs[stuff].total += 1;\n    \n    stfs[stuff].alll += 1;\n    \n  }\n    //\n  function ThumbdownForStuff(bytes32 stuff) public{\n      \n   assert(validStuff(stuff) == true);\n    \n    stfs[stuff].down += 1;\n    \n    stfs[stuff].total -= 1;\n    \n    stfs[stuff].alll += 1;\n    \n    \n  }\n  \n\n  \n\n  // To check the stuff location in the list\n  function validStuff(bytes32 stuff)public constant returns (bool) {\n    for(uint v = 0; v < stuffList.length; v++) {\n      if (stuffList[v].name == stuff) {\n        return true;\n      }\n    }\n    return false;\n  }\n  \n    function bytes32ToString(bytes32 x) constant returns (string) {\n        bytes memory bytesString = new bytes(32);\n        uint charCount = 0;\n        for (uint j = 0; j < 32; j++) {\n            byte char = byte(bytes32(uint(x) * 2 ** (8 * j)));\n            if (char != 0) {\n                bytesString[charCount] = char;\n                charCount++;\n            }\n        }\n        bytes memory bytesStringTrimmed = new bytes(charCount);\n        for (j = 0; j < charCount; j++) {\n            bytesStringTrimmed[j] = bytesString[j];\n        }\n        return string(bytesStringTrimmed);\n    }\n\n    function bytes32ArrayToString(bytes32[] data) constant returns (string) {\n        bytes memory bytesString = new bytes(data.length * 32);\n        uint urlLength;\n        for (uint i = 0; i< data.length; i++) {\n            for (uint j = 0; j < 32; j++) {\n                byte char = byte(bytes32(uint(data[i]) * 2 ** (8 * j)));\n                if (char != 0) {\n                    bytesString[urlLength] = char;\n                    urlLength += 1;\n                }\n            }\n        }\n        bytes memory bytesStringTrimmed = new bytes(urlLength);\n        for (i = 0; i < urlLength; i++) {\n            bytesStringTrimmed[i] = bytesString[i];\n        }\n        return string(bytesStringTrimmed);\n    }    \n  \n}\n",
  "sourcePath": "/home/cenhong/Voting/contracts/Voting.sol",
  "compiler": {
    "name": "solc",
    "version": "0.4.21+commit.dfe3193c.Emscripten.clang"
  },
  "schemaVersion": "2.0.0",
  "updatedAt": "2018-05-24T14:42:46.000Z"
}